:020000040008F2
:0400000000483E7501
:20000400256400082564000825640008256400082564000825640008256400082564000854
:20001400256400082564000825640008256400082564000820000008200A00082014000861
:20002400201E00082028000820320008203C00082046000820500008205A00082064000874
:20003400206E00082078000820820008208C00082096000820A0000820AA000820B40008E4
:2000440020BE000820C8000820D2000820DC000820E6000820F0000820FA00082104000853
:20005400210E00082118000821220008212C00082136000821400008214A000821540008BC
:20006400215E00082168000821720008217C00082186000821900008219A000821A400082C
:2000740021AE000821B8000821C2000821CC000821D6000821E000082564000825640008AA
:2000840021EA000821F4000821FE0008256400082564000825640008256400082564000830
:200094002208000822120008221C00082226000822300008223A000822440008224E0008A4
:2000A4002258000822620008226C00082276000822800008228A0008256400082564000878
:2000B40022940008229E000822A8000822B2000822BC000822C6000822D0000822DA000824
:2000C40022E4000822EE000822F8000823020008230C00082316000823200008232A00088F
:2000D40023340008233E00082348000823520008235C00082366000823700008237A0008FC
:2000E40023840008238E00082398000823A2000823AC000823B6000823C0000823CA00086C
:2000F40023D4000823DE000823E80008256400082564000823F2000823FC00082406000839
:200104002564000825640008256400082564000824100008241A000824240008242E00086B
:200114002438000824420008244C00082456000825640008256400082564000825640008BB
:2001240024600008246A000824740008247E0008256400082564000825640008256400080B
:20013400256400082564000825640008256400082564000825640008256400082564000823
:200144002488000824920008256400082564000825640008256400082564000825640008C3
:20015400249C000824A600082564000825640008256400082564000825640008256400088B
:200164002564000825640008256400082564000825640008256400082564000825640008F3
:2001740025640008256400082564000825640008256400082564000824B000082564000898
:2001840025640008256400082564000825640008256400082564000824BA0008256400087E
:2001940024C4000824CE000824D8000824E2000824EC000824F6000825000008250A0008B1
:2001A4002564000825640008256400082564000825640008256400082564000825640008B3
:2001B40025140008251E00082528000825320008253C00082546000825500008255A00080B
:1001C400000102030405060708090A0B0C0D0E0FB3
:2001CC00FFFFAA8000000000FFFFAA8200000000FFFFAA8300000000FFFFAA84000000006A
:2001DC00FFFEAA88000000000009FFFEAA8A000000010000FFFEAA8C000000000001FFFE68
:2001EC00AA8E000000000000FFFEAA90000000000000FFFEAA92000080000000FFFEAA968E
:2001FC000000AB400000FFFFAAB000000000FFFFAC4100000000FFFFAC4300000000FFFFCA
:20020C00AC4400000000FFFFAC4500000000FFFFAC4900000000FFFFAC4A00000000FFFF0E
:20021C00AC4B00000000FFFFAC4C00000000FFFFAC4D00000000FFFFAC4E00000000FFFFE8
:20022C00AC4F00000000FFFEAC58000000000000FFFEAC80000000000000FFFFA8000000E7
:20023C001000FFFFA80100000010FFFEA802000000000000FFFFA84000000000FFFFA94067
:20024C0000000000FFF8AA40000000000000000000000000000000000000FFF4AA6C0000A8
:20025C00400000004100000042000000430000004400000045000000FFFFAA7800000001D2
:20026C00FFFEAA7A000000000000FFFEAA7C000000000000FFFEAA7E00003E740008FFFE52
:0C027C00ADC000003E740008000000004F
:20200000761BFFF0E20000BDE63006002942561676256F00761BFFF0E20000BDE630060069
:202010002942561676256F00761BFFF0E20000BDE63006002942561676256F00761BFFF033
:20202000E20000BDE63006002942561676256F00761BFFF0E20000BDE630060029425616F2
:2020300076256F00761BFFF0E20000BDE63006002942561676256F00761BFFF0E20000BD4B
:20204000E63006002942561676256F00761BFFF0E20000BDE63006002942561676256F0067
:20205000761BFFF0E20000BDE63006002942561676256F00761BFFF0E20000BDE630060019
:202060002942561676256F00761BFFF0E20000BDE63006002942561676256F00761BFFF0E3
:20207000E20000BDE63006002942561676256F00761BFFF0E20000BDE630060029425616A2
:2020800076256F00761BFFF0E20000BDE63006002942561676256F00761BFFF0E20000BDFB
:20209000E63006002942561676256F00761BFFF0E20000BDE63006002942561676256F0017
:2020A000761BFFF0E20000BDE63006002942561676256F00761BFFF0E20000BDE6300600C9
:2020B0002942561676256F00761BFFF0E20000BDE63006002942561676256F00761BFFF093
:2020C000E20000BDE63006002942561676256F00761BFFF0E20000BDE63006002942561652
:2020D00076256F00761BFFF0E20000BDE63006002942561676256F00761BFFF0E20000BDAB
:2020E000E63006002942561676256F00761BFFF0E20000BDE63006002942561676256F00C7
:2020F000761BFFF0E20000BDE63006002942561676256F00761BFFF0E20000BDE630060079
:202100002942561676256F00761BFFF0E20000BDE63006002942561676256F00761BFFF042
:20211000E20000BDE63006002942561676256F00761BFFF0E20000BDE63006002942561601
:2021200076256F00761BFFF0E20000BDE63006002942561676256F00761BFFF0E20000BD5A
:20213000E63006002942561676256F00761BFFF0E20000BDE63006002942561676256F0076
:20214000761BFFF0E20000BDE63006002942561676256F00761BFFF0E20000BDE630060028
:202150002942561676256F00761BFFF0E20000BDE63006002942561676256F00761BFFF0F2
:20216000E20000BDE63006002942561676256F00761BFFF0E20000BDE630060029425616B1
:2021700076256F00761BFFF0E20000BDE63006002942561676256F00761BFFF0E20000BD0A
:20218000E63006002942561676256F00761BFFF0E20000BDE63006002942561676256F0026
:20219000761BFFF0E20000BDE63006002942561676256F00761BFFF0E20000BDE6300600D8
:2021A0002942561676256F00761BFFF0E20000BDE63006002942561676256F00761BFFF0A2
:2021B000E20000BDE63006002942561676256F00761BFFF0E20000BDE63006002942561661
:2021C00076256F00761BFFF0E20000BDE63006002942561676256F00761BFFF0E20000BDBA
:2021D000E63006002942561676256F00761BFFF0E20000BDE63006002942561676256F00D6
:2021E000761BFFF0E20000BDE63006002942561676256F00761BFFF0E20000BDE630060088
:2021F0002942561676256F00761BFFF0E20000BDE63006002942561676256F00761BFFF052
:20220000E20000BDE63006002942561676256F00761BFFF0E20000BDE63006002942561610
:2022100076256F00761BFFF0E20000BDE63006002942561676256F00761BFFF0E20000BD69
:20222000E63006002942561676256F00761BFFF0E20000BDE63006002942561676256F0085
:20223000761BFFF0E20000BDE63006002942561676256F00761BFFF0E20000BDE630060037
:202240002942561676256F00761BFFF0E20000BDE63006002942561676256F00761BFFF001
:20225000E20000BDE63006002942561676256F00761BFFF0E20000BDE630060029425616C0
:2022600076256F00761BFFF0E20000BDE63006002942561676256F00761BFFF0E20000BD19
:20227000E63006002942561676256F00761BFFF0E20000BDE63006002942561676256F0035
:20228000761BFFF0E20000BDE63006002942561676256F00761BFFF0E20000BDE6300600E7
:202290002942561676256F00761BFFF0E20000BDE63006002942561676256F00761BFFF0B1
:2022A000E20000BDE63006002942561676256F00761BFFF0E20000BDE63006002942561670
:2022B00076256F00761BFFF0E20000BDE63006002942561676256F00761BFFF0E20000BDC9
:2022C000E63006002942561676256F00761BFFF0E20000BDE63006002942561676256F00E5
:2022D000761BFFF0E20000BDE63006002942561676256F00761BFFF0E20000BDE630060097
:2022E0002942561676256F00761BFFF0E20000BDE63006002942561676256F00761BFFF061
:2022F000E20000BDE63006002942561676256F00761BFFF0E20000BDE63006002942561620
:2023000076256F00761BFFF0E20000BDE63006002942561676256F00761BFFF0E20000BD78
:20231000E63006002942561676256F00761BFFF0E20000BDE63006002942561676256F0094
:20232000761BFFF0E20000BDE63006002942561676256F00761BFFF0E20000BDE630060046
:202330002942561676256F00761BFFF0E20000BDE63006002942561676256F00761BFFF010
:20234000E20000BDE63006002942561676256F00761BFFF0E20000BDE630060029425616CF
:2023500076256F00761BFFF0E20000BDE63006002942561676256F00761BFFF0E20000BD28
:20236000E63006002942561676256F00761BFFF0E20000BDE63006002942561676256F0044
:20237000761BFFF0E20000BDE63006002942561676256F00761BFFF0E20000BDE6300600F6
:202380002942561676256F00761BFFF0E20000BDE63006002942561676256F00761BFFF0C0
:20239000E20000BDE63006002942561676256F00761BFFF0E20000BDE6300600294256167F
:2023A00076256F00761BFFF0E20000BDE63006002942561676256F00761BFFF0E20000BDD8
:2023B000E63006002942561676256F00761BFFF0E20000BDE63006002942561676256F00F4
:2023C000761BFFF0E20000BDE63006002942561676256F00761BFFF0E20000BDE6300600A6
:2023D0002942561676256F00761BFFF0E20000BDE63006002942561676256F00761BFFF070
:2023E000E20000BDE63006002942561676256F00761BFFF0E20000BDE6300600294256162F
:2023F00076256F00761BFFF0E20000BDE63006002942561676256F00761BFFF0E20000BD88
:20240000E63006002942561676256F00761BFFF0E20000BDE63006002942561676256F00A3
:20241000761BFFF0E20000BDE63006002942561676256F00761BFFF0E20000BDE630060055
:202420002942561676256F00761BFFF0E20000BDE63006002942561676256F00761BFFF01F
:20243000E20000BDE63006002942561676256F00761BFFF0E20000BDE630060029425616DE
:2024400076256F00761BFFF0E20000BDE63006002942561676256F00761BFFF0E20000BD37
:20245000E63006002942561676256F00761BFFF0E20000BDE63006002942561676256F0053
:20246000761BFFF0E20000BDE63006002942561676256F00761BFFF0E20000BDE630060005
:202470002942561676256F00761BFFF0E20000BDE63006002942561676256F00761BFFF0CF
:20248000E20000BDE63006002942561676256F00761BFFF0E20000BDE6300600294256168E
:2024900076256F00761BFFF0E20000BDE63006002942561676256F00761BFFF0E20000BDE7
:2024A000E63006002942561676256F00761BFFF0E20000BDE63006002942561676256F0003
:2024B000761BFFF0E20000BDE63006002942561676256F00761BFFF0E20000BDE6300600B5
:2024C0002942561676256F00761BFFF0E20000BDE63006002942561676256F00761BFFF07F
:2024D000E20000BDE63006002942561676256F00761BFFF0E20000BDE6300600294256163E
:2024E00076256F00761BFFF0E20000BDE63006002942561676256F00761BFFF0E20000BD97
:2024F000E63006002942561676256F00761BFFF0E20000BDE63006002942561676256F00B3
:20250000761BFFF0E20000BDE63006002942561676256F00761BFFF0E20000BDE630060064
:202510002942561676256F00761BFFF0E20000BDE63006002942561676256F00761BFFF02E
:20252000E20000BDE63006002942561676256F00761BFFF0E20000BDE630060029425616ED
:2025300076256F00761BFFF0E20000BDE63006002942561676256F00761BFFF0E20000BD46
:20254000E63006002942561676256F00761BFFF0E20000BDE63006002942561676256F0062
:20255000761BFFF0E20000BDE63006002942561676256F00761BFFF0E20000BDE630060014
:202560002942561676256F00761BFFF0E20000BDE63006002942561676256F00761BFFF0DE
:20257000E20000BDE630060029425616E28000BEFFF176177602761BFFF0E20000BDE6306F
:2025800006002942561676256F00FE048F00A84076483469520061158F00A8407648347ED1
:2025900096436F099243764827A96F0B9243764827F66F07761F02AA920361F5520161F700
:2025A000761F02A0E2AF0002E811FC00AD146514761F02AA92045203600F2B043B10762671
:2025B0000000762F0000FF69764829FD761F02AA06087648355E9A00FE8400067622761F2B
:2025C00017EC1800FFF0761A76228F05F80002C8FF6976483BBB761F02AA960152006103C9
:2025D000764080370006761F02AA9A068A0876483D9C761F02AA960176483E62520260FD87
:2025E000761F02AA8F40AA988A08061276483B79761F02AA96010006FE12A8465CADDC901C
:2025F0005CA476C801C4F6072484761F02AA8F084000A8A92B5107101E486F215CADBE006A
:202600003B01DC90C2420EA456BF01438A48815183A9920A9B0076483240761F02AA9601F4
:2026100076483E62520161FD76483E7D761F02AA1E06920A7251060A07481E488F084008BA
:20262000C4A4060A071007A60F486903920161D7FE920006FE082B473B016F1D5603014759
:202630005DA98F00AAC7A8A9DD0181A58AA95603014788A98F40AAC7A0A981A683A95603F5
:2026400008C594C488A98F00AAC7A8A981478AA97EC40A47761F02AB9204544762E02B471E
:202650006F339E475208640456BF08486F0492049E47964856BF0148060256210047FF3F8E
:202660000D00761F02AA07AC070C1E468F40AAC73B0102001E4256BF0143A0A98A468147CA
:2026700083A99B00924876483240761F02AA96019248724776483E62520161FD76483E7D86
:20268000761F02AA1E06761F02AB9204544762CAFE880006FE1202001E4E2B517622761F83
:2026900017EC1800FFF0761A76228F05F800FF6902C876483BBB965252006103764080377B
:2026A0009A0076483CED965252006103764080379A068F08400076483D9C965276483E623A
:2026B000520260FD5DAD8F001000A8A9DD8C8F0840005DA576483B79965252006103764057
:2026C00080379A068F08200076483D9C965276483E62520260FD5DAD8F001000A8A9DD8CFB
:2026D0008F0820005DA576483B79965252006103764080372B51925152FF66098F00AB401B
:2026E000585196940A51925152FF69FB8F0840002B51A84E6F35BE008F40AB40A0A9C24262
:2026F0002B438A4E0D5183A99A089B0076483240965276483E62520161FD92526103764098
:20270000803776483E7D1E505CAD2901761F02AADC8C0EA41E429251FFC08A4E560301A9B0
:20271000071683A9020476483E3B96525200610376408037020808510008074E1E4E8F0855
:2027200040FFA8A90F4E6903925261C6761F17EC1800FFF08F0820002B51A84E6F36BE000A
:202730008F40AB40A0A9C24256BF01438A4E0D5183A99A089B0076483240965276483E6214
:20274000520161FD925261037640803776483E7D1E505CAD2901761F02AADC8C0EA41E423E
:202750009251FFC08A4E560301A9071683A9020476483E3B96525200610376408037020851
:2027600008510008074E1E4E8F0820FFA8A90F4E6903925261C59A068F08400076483D9C4F
:20277000965276483E62520260FD5DAD8F001000A8A9DD8C8F0840005DA576483B799652BC
:2027800052006103764080379A068F08200076483D9C965276483E62520260FD5DAD8F0098
:202790001000A8A9DD8C8F0820005DA576483B7996525200610376408037761F17ECCC00C5
:2027A000FFF0500A9600761AFF697640803DFE920006FE02964196426F3E9242525B6003F9
:2027B00056BF010496306F41924252536105524961035247600456BF02046F022B0496311C
:2027C0006F349242525D602392315253600B9A52764828D4764825BE764825D356BF010367
:2027D0006F16524960059A49764828D46F105247600E9A52764828D4761F02A0E590E2030A
:2027E0000002761F02AA56BF03046F0F761F02AA2B046F0B761F02AA920461C0520161C5A1
:2027F000520261D052036101FE820006FE02964192419642FFEF00BE9242523A600356BF01
:2028000001189242761F02AA9630FFEF00C9934192A8761F02ABFFCE94A8FFA09604761FE6
:2028100002AC56BF0218761F02AB2B05761F02AC2B17FFEF00B5761F02AB80059A018F0040
:20282000AAC73B0194A79605A8A981A71EA7924296C792055202FFE400A3761F02AC56BFDD
:202830000318761F02AB5603080794089600FFEF00979242761F02AB9606924152016006CE
:20284000761F02AC56BF05186F05761F02AC56BF0418761F02AB2B05FFEF0082761F02ABF7
:2028500080059A018F00AAC73B0194A79605A8A981A71EA7924296C7560301045405606F41
:20286000761F02AC56BF05186F6A9242FF5E9C019642921790FF0EA91EA6924290FF80A925
:2028700006A60FA760296F1F7648262A9A52764828D46F3B761F02AA2B039A52764828D45C
:202880006F340E081E029A52764828D4761F02AB280B12346F2A9A45764828D4761F02AA8B
:202890002B036F23761F02AB920661DF520161E3520461E86FF19A45764828D4761F02ABDD
:2028A00092429607761F02AC9217761F02AB9608924290FF9609761F02ACC617761F02AB77
:2028B000960A761F02AA2B03761F02AC2B186F17761F02AC92185203620E5203FFE1FF7B8C
:2028C0005200FFE1FF3B5201FFE1FF435202FFE1FF546F0552046183520561989241761F2A
:2028D00002AC7217FE820006FE02964152526103524560118F00A8409A5B764834D88F007F
:2028E000A8409241764834D89A5D8F00A840764834D86F12524960108F00A8409A5B764865
:2028F00034D89A498F00A840764834D89A5D8F00A840764834D8FE820006764829FD28A925
:20290000004428A800008F4860008F00800076483DBC764080007622FF697648301E761FCF
:20291000174C1A3C00011A3C00021A3C00041A3C00088F05D1B692C460098F007BDD761F87
:202920001746A836A838A83AA83C761F174C183CFFFE183CFFFD183CFFFB183CFFF7761AF5
:202930009A01D400D5019B14FF6976482A0B7648293A00067622761F174C1A2200011A2208
:2029400000041A2200081A2200101A2200201A2300011A2300041A2400011A2400021A2649
:2029500000011A2600021A2600041A2600081A2600101A2600201A2600401A2600801A2668
:2029600001001A2602001A2604001A2608001A2800011A2800021A2800041A2800081A282F
:2029700000101A2800201A2A00011A2A00021A2A00041A2E00011A2E00021A3000011A30DA
:2029800000021A3000041A3000081A3200011A3200021A3200041A3400011A3400021A36BB
:2029900000011A3600021A3800011A3800021A3900011A3A00011A3C00011A3C00021A3C7F
:2029A00000041A3C00081A3E00011A3E00021A3E00041A3E00081A3E00101A3E00201A3E0E
:2029B00000401A3E0080761F174D1A0300011A0300021A030004761AFF6900067622020000
:2029C000761F174C1E221E241E261E281E2A1E2E1E301E321E341E361E381E3A1E3C1E3EB7
:2029D000761F174D1E02761AFF69000676226F059A0228A85A5A1E24761F14009224900370
:2029E000520260F7761AFF69000676229A0028A85A5A761F14001E24761AFF6900067622F7
:2029F000761F01C0CC25FF0050559625CC25FF0050AA9625761AFF690006FE027622761F51
:202A000001C0922990079641924150689629761AFF69FE820006FE067D447C4397429641D0
:202A1000761F17488841920890030EA90FA6601488429214907F0EA90FA6600E8843CC14D8
:202A20000300FFC70EA90FA6600788449222903F0EA90FA661628841920890030EA90FA61A
:202A300061116F0A76482B426F0D76482B4C6F0A76482B566F07924161F9520161FA520262
:202A400061F27622761F174888429214907F0EA90FA660088843CC140300FFC70EA90FA664
:202A50006122180EFFFD1822FFC006141E4618A9FC8091001EA756030843CA4288A906A729
:202A6000AFA61E141A0E000192169001520160FD9242CD14FF80907FCAA896149216900125
:202A7000520160FD9244523F61089C01CD22FFC0903FCAA896226F06CD22FFC0903FCAA81E
:202A800096221A0E0002F66477009244CD22FFC0903FCAA89622761AFE86FF690006FE087E
:202A90007D447C4397429641761F17488841920A90030EA90FA6601E8842921E907F0EA9E0
:202AA0000FA660188843CC1E0300FFC70EA90FA660118844922490030EA90FA661706F0AC3
:202AB00076482B626F0D76482B6C6F0A76482B786F07924161F6520161F7520461F80E42C6
:202AC000761F17481EA6921E907F80A906A60FA7600A0E431EA6CC1E0300FFC780A906A6ED
:202AD0000FA7612476221A240003061E1E4818A9FC8091001EA756030843CA4288A906A727
:202AE000AFA61E1E1A180001761A92209001520160FD76229242CD1EFF80907FCAA8961E84
:202AF000761A92209001520160FD56BF03456F1976229245CD24FFFC9CFF9003CAA89624A9
:202B0000761A0B450E441EA69224900380A906A60FA761078F000256FF69A8A9764080406D
:202B10000E44761F17481EA69224900380A906A60FA760DF76221A180002761AFE88FF693E
:202B2000000676220200761F17C019011E10020019011E12020019011E14020019011E1657
:202B30000200761F17C119011E10020019011E12020019011E14020019011E16761A9A00BA
:202B4000FF6900067622761F1748CC08FFFC50029608761AFF6900067622761F1748180812
:202B5000FFF71808FFFC761AFF6900067622761F17481808FFEFCC08FFFC50019608761A6E
:202B6000FF6900067622761F17481808FFF7180AFFFC761AFF6900067622761F174818087E
:202B7000FFEFCC0AFFFC5001960A761AFF6900067622761F1748CC0AFFFC5002960A761AB8
:202B8000FF6900067622761F174D1836FFFC761A7621FF6900067622761F174DCC36FFFCCA
:202B900050019636761A7621FF6900067622761F174DCC36FFFC50029636761A761F174447
:202BA00092259003520160FB7622761F1748180EFFFD180EFFFE761A7621FF69000676221F
:202BB000761F174D1A360003761A761F174492259003600592249001520161F8FF69764871
:202BC00029BE7622761F1748180EFFFD180EFFFE761A7621FF690006B2BDAABD5AADDA866B
:202BD000FE7096452901D00E8F0700A856030B45560100A4A8922BF2D00802001E92D008F9
:202BE00002300F92691AD008D10E5CAD0692839ADCE6D008FF30560100A5C4C50692FF30F5
:202BF000560100A4C2C4D008D108020107921E9AD00802300F9266E892455207ED06761F8E
:202C000002A9922996FA6F05761F02A9922896FA92FA9C01BE00560301A980A9C3420E2A70
:202C1000C24476483C4AD00C1E92761F02A9BE005603042A93FA9D0180A8C3420EA9C24434
:202C200076483C4AD00A1E92D026CC920FFFD00C0EA90F92670528F201F8FFEF01E80216C2
:202C30005CAD1E42DCE6021076483E57D0360F92EC0528F201F6FFEF01DA761F02A98A2296
:202C400018D4FFFD8A229A009001DC02CDC4FFFECAA896C48F0001440622560100A4CCC4F6
:202C5000FFF8500596C4D00A0692D02C1E420E9276483E4A761F02A98A228D000120969446
:202C6000D00A0692D02E1E42069276483E4A761F02A98A228D0001221E94D00A0692D023F3
:202C70001E42929290FF0EA976483E4A761F02A98F0001101EA60622560100A492A693C4DE
:202C80003CA897C4D00A0692D0251E42CC92FF00FFC70EA976483E4A761F02A98F0001142A
:202C90001EA60622560100A492A693C439A997C4D00A0692D0271E42CC92FF00FFC70EA9CE
:202CA00076483E4A761F02A98A228D0001169694D00A0692D0241E42CC92FF00FFC70EA974
:202CB00076483E4A761F02A98F00011A1EA60622560100A492A693C439A997C4D0218F00A1
:202CC00001080622560100A4CC92FF00FFC788A992C438A696C4D0218F000108CC9200FF00
:202CD00080A90622560100A492A793C43CA897C4D0208F00010C0622560100A4CC92FF00BD
:202CE000FFC788A992C438A696C4D0208F00010CCC9200FF80A90622560100A492A793C48A
:202CF0003CA897C4D0228F00010ECC920FFF80A90622560100A492A7CCA90FFFCDC4F00000
:202D0000CAA896C4D0228F00010E0622560100A4CC92F000FFCB88A9CCC40FFF80A95603CB
:202D10000CA6CAA796C4D0268F00010A0622560100A4CC92F000FFCB88A9CCC40FFF80A963
:202D200056030CA6CAA796C4D0238F0001100622560100A4CC92FF00FFC788A992C438A67F
:202D300096C4D0258F000112CC9200FF80A90622560100A492A793C43CA897C4D02A889206
:202D40008F0001340622560100A4CCA60FFFCDC4F000CAA896C4D02988928F0001350622BF
:202D5000560100A4CCA601FFCDC4FE00CAA896C4D02D88928F0001360622560100A4CCA629
:202D60000FFFCDC4F000CAA896C4D03088928F0001370622560100A4CCA601FFCDC4FE00F3
:202D7000CAA896C48F0001390622560100A418C4FE00D0288F00013C0622560100A49292A6
:202D80009CFF907FCDC4FF80CAA896C483228D00013E8F004500A8958A22D0322894AA55C2
:202D90008A22D034DC40CC92FF00FFC7900FCDC4FFF0CAA896C48A22D030DC439292CCA9E5
:202DA00001FFCDC4FE00CAA896C48A22D033DC429292CCA901FFCDC4FE00CAA896C48A224B
:202DB000D031DC459292CCA901FFCDC4FE00CAA896C48A220200D0461E948322D0808F01F2
:202DC0000104A8958322D0828F000103A895BE8406220DA68AA918C4FFF8BE8606220DA6A8
:202DD0008AA918C4FF808A22D032DC48CC92FF00FFC7901FFF87CDC4E0FFCAA896C48A2243
:202DE000D032DC48CC9200FF901FCDC4FFE0CAA896C48A22D035DC4ACC92FF00FFC7CDC4DA
:202DF0000FFF88A856030CA9CAA696C48A22D035DC4CCC9200FF901FCDC4FFE0CAA896C48C
:202E00008A22D027DC54CC9200FF93C43CA897C48322D0828F000103A8958322D0808F01A0
:202E10000104A8958A22D0322B94761F02A98F0001440622560100A4CCC4FFF8500296C489
:202E200092F2FEF086BE8BBE0006FE0476220200761F01F01E3C761F01F11E3C761F01F2A8
:202E30001E3C761F01F31E3C761F01F41E3C761F01F51E3C8F007C00A8422B43924352C032
:202E4000670F2901BE00901F520661065603014307428AA9C2C40A43924352C068F58F00E7
:202E50007F00A8422B4392435218670C2901BE005603014307428AA9C2C40A4392435218C6
:202E600068F8761AFE84FF690006FE0E7C4B974A9649901F964C9249900F964D924990077F
:202E7000964E29018F007C009249FFC4FF84560301A9560100A4A842924A52036670924B3C
:202E8000520F69026F6C924CFFC3560301A9074209061E44924CFFC3560301A90742092019
:202E90001E46924CFFC2560301A9074209281E487622FF6902038A44FF5A5603014D16A9AA
:202EA000563BFF55FF5A92ABC0C492AAC0CC0203FF5A8A465603014D16A9563BFF55FF5A79
:202EB00092ABC0C492AAC0CC0203FF5A924BFFC188A98A46A9A989A6FF5A5603014D16A93D
:202EC000563BFF5A92AB98C492AA98CC0203894B8A44FF5A5603014D16A9563BFF5A92AB42
:202ED00098C492AA98CC0203FF5A8A485603024E16A9563BFF55FF5A92ABC0C492AAC0CC87
:202EE0000203894A8A48FF5A5603024E16A9563BFF5A92AB98C492AA98CC761AFE8EFF69C0
:202EF0000006FE187C5797569655901F0EA91E4E9255900F0EA91E502D4E0201563B1E52FF
:202F000029018F007C009255FFC4FF84560301A9560100A4A842020A07421E44020C074259
:202F10001E46021007421E48021207421E4A064EFF43FF30074209021E4C76228A44065276
:202F2000FF55C0C4C1CC92565201601F8A44065298C499CC42576C068A4A065298C499CC93
:202F30006F068A4A0652FF55C0C4C1CC9257900561078A460652FF55C0C4C1CC6F238A46A6
:202F4000065298C499CC6F1E8A440652FF55C0C4C1CC40576C078A460652FF55C0C4C1CCA9
:202F50006F058A46065298C499CC41576C068A48065298C499CC6F068A480652FF55C0C498
:202F6000C1CC92579030FFC30EA91E54FF6902038A4CFF5A5603015016A9563BFF55FF5AED
:202F700092ABC0C492AAC0CC0654610CA354560301508A4C16A9563BFF5A92AB98C492AAFC
:202F800098CC761AFE98FF690006FE0A974A9649901F0EA91E462D460201563B1E48290110
:202F90008F007C009249FFC4FF84560301A9560100A4A842023C07421E447622924A610649
:202FA0008A44064898C499CC6F068A440648FF55C0C4C1CC761AFE8AFF690006FE029641E1
:202FB0007622761F01E49603761AFF69FE820006FE0296417622761F01E49604761AFF695D
:202FC000FE820006FE0296417622761F01E49605761AFF69FE820006FE0296417622761F65
:202FD00001E4960C761AFF69FE820006FE0296417622761F01E4960D761AFF69FE820006D2
:202FE000762228A9FFFF28A87FFF761F01F21E0C761F01F302081E0C761F01F402201E0CD7
:202FF0003B01761F01F5FF29FFFF1E0C761AFF69000676228F3FFC1C761F01F0A80C28A923
:203000000E0028A8FC00761F01F11E0C28A943E728A81EF0761F01F21E0C761F01F3020807
:203010001E0C761F01F402001E0C3B01761F01F5FF29FFFF1E0C761AFF690006FE02761F16
:2030200017400608290118A907009100FF4796415205600476482FF96F06520660047648FB
:203030002FE06F01FE820006FE049643FFC429018F007F00FF81560301A9560100A4A8423D
:203040009243901F2DA906C456221EA692A690019644FE840006FE0697469645FFC429013C
:203050008F007F00FF81560301A9560100A4A84202011EA69245901F2DA906A6563B1E4428
:203060009246600406441EE46F0306441ED4FE860006FE02764828FD761F174C1A26000174
:2030700076482E2576483814764835739A1FD4009B0076482E659A22D4009B0076482E65CA
:203080009A1FD4009B0176482EF19A22D4009B0176482EF19A37D4069B0076482E659A37B9
:20309000D4009B0076482EF19A36D4069B0076482E659A36D4309B0176482EF1764831C63C
:2030A0008F01C200A8A9764834A33B10FF6976483C9F76260000762F000076483CC77622F2
:2030B000761F00358F083737A8008F08379DA80C761F00378F083765A804761F00358F085E
:2030C00037F4A820761AFF69764831E4764831FF9A007648321B76483A2F8F00AA58E802FD
:2030D0001A40E80223D176483A70761F00301804FFEF7623000176230004761F00331A2236
:2030E00000011A2200401A2600017622761F174C1A230004761F01021A240800761A29109A
:2030F00029207700761F02B10A02E2AF0014E850B2007700E68C00007700FF69BFA90F12CC
:2031000028A8010000C83D8B961AE2AF0014E850B2007700E68C000077007700BFA90F12AF
:2031100093A9FFA6FFC794A8FFA7961B921A961C5603081B941C961DE8021641E2C8001D20
:2031200076483928761F02B1E2030012761F01FCCC090004761F02B1FFC19605761F01FC91
:20313000CC090008761F02B1FFC2960B761F01FCCC090010761F02B1FFC3960A761F01FC45
:20314000CC090020761F02B1FFC4960D761F01440600761F02B19601761F01FCCC08200087
:20315000761F02B1FFCC9607761F01FCCC081000FFCB88A9761F02B15603010794A69607BE
:203160009608761F01FC4C086C078F080000A8A97648355E6F084D086C068F090000A8A9F8
:203170007648355E761F02B1920C52016004764825BE6F245202601706181E162B0F920F25
:203180005210631C3B01850F8F00AC5E07161EA7A8A9810F8AA992C796C40A0F920F521020
:2031900064F36F0C520360068F00AC5E764825EC6F0552046003764825D3761F02B12B0CC8
:2031A000764825858F00A8408F407210764833DD8F00A8408F40721076483516761F02B2F7
:2031B000E801F260E2AF0100E80E6668E6940001AD14FFE5FF39761F01FC1A078000E5906E
:2031C000761F02B2E2030000FFEFFF2E28A968C028A80478761F01441E1018143FFFCC150E
:2031D0003FFF1AA9400096151A1500021A150004CC15CFFF1AA91000961502601E041A15AF
:2031E00000081A18080000067622761F01D0CC01FFF050069601D4009B00FF699A007648B1
:2031F000365A761F01D01A0000041A0000808F009C3EA8A976408040761AFF69000676224B
:20320000761F01021824F7FFCC24F8FF1AA904009624CC26FCFF1AA901009626761F010178
:20321000282B080028231000761F01001A000003761AFF690006FE02761F01D0CC010040C4
:20322000FFC5600456BF0E416F0356BF3F41762218107FFF1811FFF8CC4101FFCD14FE00B1
:20323000CAA89614CC17FE0F505096171807FFF01A0700201A040001761AFF69FE82000639
:20324000FE2E97469645A044A8422B47761F02A9062209901E4A062209901E4C062209A0E5
:203250001E4E9224964F9226965002001E521E541E561E581E5A1E5C56030145965D92468F
:20326000965E06441E6006721E622B632B642B6502001E682B691E6C1E6E0642FF301E42E4
:203270008A22D028929490075207ED059225964F92279650884F0642DE8189A61E52924F59
:203280009CFF0EA9FF551E5A92735202EC0A925DEC06884F0E5D07520FA66903284701FDB7
:2032900092735201EC0E5200EC0C925EEC08065288502901FF420D5E0FA66903284701FE09
:2032A00092735203ED0A925D9007EC07925DFFC2545EEC03284701FFC4428F0E0000A8A990
:2032B0000FA66609C4428F0F0000A8A90FA66903284701FBC4428F0F0030A8A90FA6660910
:2032C000C4428F0F0038A8A90FA66903284701FBC4428F0F0430A8A90FA66609C4428F0F44
:2032D0000438A8A90FA66903284701FB8F07020192C490070EA91E6E02060F6EED0FC44275
:2032E0008F140000A8A90FA66609C4428F180000A8A90FA66903284701FBC4428F0F000088
:2032F000A8A90FA66607C4428F0F0020A8A90FA6660DC4428F0F0400A8A90FA6660FC442E5
:203300008F0F0420A8A90FA6690992735202ED04284702006F0356BF0173924756C000CC02
:203310009A1076483C1D9A0276483D589273ED11761F02A98A228D000203CC940020FFC429
:203320005201ED070622BE8F0DA68AA91AC40100761F02A98A220642D0881E949273520275
:20333000EC1C06522901FF401E6C92459CFF0EA9076C1E54066C1E5C06540F5C680E836012
:20334000064C8885075C8AA9A0607EC40201075C1E5C06540F5C67F4761F02A98A22D08FEB
:20335000CC940100FFC75201EC7492735201EC7106522901FF421E569273ED0B925D9CFF10
:203360000EA907521E540654FF4209011E586F040E5E07561E58C4428F100000A8A90FA653
:20337000660FC4428F17FFFEA8A90FA668090642FF0F0020FF43FF1F02101E686F14C442B1
:203380008F0F0000A8A90FA6660EC4428F0F07FEA8A90FA668080642FF0F001EFF43FF1C25
:2033900010711E682B6906561E5C06580F5C69318A6892C49663065CED0FC56292C7966430
:2033A00092638A4EFFC788A956030864CAA696CC56BF01696F1802010F5CED158A6292843A
:2033B000FFC7A862966592695201ED088A4E56030864CA6596CC2B696F068A4E560308631C
:2033C000CA6596CC0201075C1E5C06580F5C66D19A0276483C1D761F02A98A22D08FCC941E
:2033D0000100FFC75201ED070622BE8F0DA68AA918C4FEFF9247FEAE0006FE18A044A8422C
:2033E000C54488ADDE945CA6F60F2484761F01C8CC1B8000FFCE520160081A1B40001A1B77
:2033F000004028A9FFFF6F74CC1B1F00FFC796572B559257545569693B01761F01C8C617B7
:2034000096568F000205A8A907428AA985C407421EA7925696C78F000205A8A907428AA95E
:203410000AC41BC4010060078F000205A8A907428AA92BC48F000207A8A907428AA90AC402
:203420001BC40100600E8F000207A8A907428AA92BC48F000200A8A907428AA956BF01C4B2
:203430008F000205A8A907428AA985C407421EA7925696C78F000205A8A907428AA91BC43B
:20344000010060078F000205A8A907428AA92BC48F000207A8A907428AA91BC401006011FC
:203450008F000207A8A907428AA92BC48F000200A8A907428AA956BF01C428A9FFFE6F088B
:203460000A5592575455669A1A1B00409A00FE98000608AD020A5DAD08A5FDF67680020845
:20347000A84206A65CA5834276483DBC9A009345554661029A0108ADFDF60006FE04A84284
:203480008F000204A8A907428AA93B0185C407421EA792C796438F000204A8A907428AA9A3
:203490000AC41BC4010060078F000204A8A907428AA92BC48F000207A8A907428AA90BC482
:2034A0009243FE840006FE041E422B43761F01C8281AE000281B206F2B1C56BF071056BF05
:2034B0000311E28800427700E8504001E80261F0E80DE10076483928E8AFE0007700E88FB7
:2034C000C0007700E68C000077007700BFA90F129643761F01C8FFA79612924390FF96133A
:2034D00056BF2311CC1BFFE0500A961BFE840006FE049643A84296448F000202A8A907426E
:2034E0008AA93B019B0192C495A997C485A90742FF1800011EA7924496C78F000202A8A967
:2034F00007428AA91BC4010060078F000202A8A907428AA92BC48F000206A8A907428AA946
:203500000AC41BC4010060108F000206A8A907428AA92BC48F000201A8A907428AA956BFC6
:2035100001C49A016F029A00FE840006FE14A044A842C54488ADDE945CA6F60F24848F00DA
:203520000203A8A907428AA988C48F000202A8A907428AA992A654C4612F761F01C8CC1AE9
:203530001F00FFC7520A62288F000203A8A907428AA93B019B0192C495A997C485A9074211
:20354000FF1800018AA9881992C43CA67E198F000203A8A907428AA91BC4010060078F0079
:203550000203A8A907428AA92BC48F000206A8A907428AA90BC4FE9400060006FE041E4267
:2035600006421E44C5443E67FE840006761F02A09201761F0101962B761F02A09200761FEB
:203570000101962300067648357600067622761F01F01A0C00011A0C0002CC06FFFC500180
:203580009606CC06FFF350049606761AFF6900067622761F01F01A0C00041A0C0008CC0695
:20359000FFCF50109606CC06FF3F50409606761AFF6900067622761F01F01A0C00101A0C9D
:2035A0000020CC06FCFF1AA901009606CC06F3FF1AA904009606761AFF6900067622761F6C
:2035B00001F01A0C00401A0C0080CC06CFFF1AA910009606CC063FFF1AA940009606761AB0
:2035C000FF6900067622761F01F01A0C01001A0C0200CC07FFFC50019607CC07FFF350043B
:2035D0009607761AFF6900067622761F01F01A0C04001A0C0800CC07FFCF50109607CC0759
:2035E000FF3F50409607761AFF6900067622761F01F01A0C10001A0C2000CC07FCFF1AA937
:2035F00001009607CC07F3FF1AA904009607761AFF6900067622761F01F01A0C40001A0C4C
:203600008000CC07CFFF1AA910009607CC073FFF1AA940009607761AFF6900067622761F3D
:2036100001F51A0C00021A0C0004CC06FFF350049606CC06FFCF50109606761AFF69000604
:203620007622761F01F51A0C00081A0C0010CC06FF3F50409606CC06FCFF1AA9010096069A
:20363000761AFF6900067622761F01F51A0C00201A0C0040CC06F3FF1AA904009606CC06B4
:20364000CFFF1AA910009606761AFF6900067622761F01F51A0C00801A0C0100CC063FFF2F
:203650001AA940009606CC07FFFC50019607761AFF690006FE067C4397429641764836FD9D
:203660008F0703AC0EC48F00FFFF0FA4610E5603024188A95603014294A69443964476C7F3
:2036700003AC3E6796456F7F2B456F7D761F01D09242CD01FFBF9001FF85CAA89601924308
:203680009001CD01FF7FFF86CAA896019245963B92426072761F01D1183000001832000078
:2036900018360000183800006F67761F01D29242CD01FFBF9001FF85CAA89601924390015A
:2036A000CD01FF7FFF86CAA896019245963B92426053761F01D318300000183200001836B8
:2036B0000000183800006F48761F01D49242CD01FFBF9001FF85CAA8960192439001CD01D7
:2036C000FF7FFF86CAA896019245963B92426034761F01D518300000183200001836000083
:2036D000183800006F29761F01D69242CD01FFBF9001FF85CAA8960192439001CD01FF7F56
:2036E000FF86CAA896019245963B92426015761F01D71830000018320000183600001838AE
:2036F00000006F0A92416183520161A0520261BD520361DA6F01FE860006FE0296416F2DC7
:203700008F0703B40EC48F00FFFF0FA4612F76C703B43E676F2B8F0703B20EC48F00FFFFDD
:203710000FA4612476C703B23E676F208F0703B00EC48F00FFFF0FA4611976C703B03E67D1
:203720006F158F0703AE0EC48F00FFFF0FA4610E76C703AE3E676F0A520061D3520161DC1B
:20373000520261E5520361EE6F01FE820006761BFFF00005A8BDE20000BDE6300600294235
:203740005616761F02B10A0358069A01761F002C8F00ACC0930094A0761F02B1960697941D
:203750001B06010068042B0656BF0100761F01D01A040001761F003356BF0121E28000BEE0
:203760008ABE0003FFF176177602761BFFF00005ABBDA8BDA0BDC2BDC3BDE20000BDE203D7
:2037700000BDE20301BDE20302BDE20303BDE6300600FF6929425616761F02B10A048F0050
:20378000A8408F407210764833DD761F00331A210100E2AF03BEE2AF02BEE2AF01BEE2AF9A
:2037900000BEE28000BEC5BEC4BE83BE8ABE87BE00033B30FFF176177602761BFFF0ABBD1D
:2037A000A8BDA0BDC2BDC3BDE20000BDE20300BDE20301BDE20302BDE20303BDE6300600FF
:2037B000FE0229425616761F02B10A10E801D418761F02A0E8089378E2AF0102E7100040EE
:2037C0007700E20300022B419241521063173B01560301418F00AC80560100A4E801D4180E
:2037D000E8089378E2AF01C4E71000407700E20300C40A419241521064EC761F003356BF84
:2037E0000121FE82E2AF03BEE2AF02BEE2AF01BEE2AF00BEE28000BEC5BEC4BE83BE8ABE37
:2037F00087BEFFF176177602761BFFF0E20000BDE630060029425616761F02B10A0E761F78
:2038000001021A2A0001761F003356BF0421E28000BEFFF17617760200067648381476487B
:20381000383C7648386200067622761F01F11A0D00041A0D00081A0D00101A0D00201804B3
:20382000FFCF1804FF3F1804FCFF1804F3FFCC08FFCF50109608CC08FF3F50409608CC0887
:20383000FCFF1AA901009608CC08F3FF1AA904009608761AFF6900067622761F01F01A0DAD
:2038400001001A0D02001A0D04001A0D08001805FFFC1805FFF31805FFCF1805FF3FCC09A2
:20385000FFFC50029609CC09FFF350089609CC09FFCF50209609CC09FF3F50809609761AEA
:20386000FF6900067622761F01F01A0D10001A0D20001A0D40001A0D80001805FCFF1805FB
:20387000F3FF1805CFFF18053FFFCC23FCFF1AA901009623CC09FCFF1AA902009609CC2376
:20388000F3FF1AA904009623CC09F3FF1AA908009609CC23CFFF1AA910009623CC09CFFF99
:203890001AA920009609CC233FFF1AA940009623CC093FFF1AA980009609761AFF690006BA
:2038A000FE0EA0461E44A842064276483D365200ED3506421E48C4448AA602000FA6DC81E3
:2038B000A844EC748A52834806C40FC5EC0F8A4606481EC48A48834606C41ED58A5283466F
:2038C00006C41EE528A901F46F62BE0006489B0090FF0FA6ED0376483AAB9253EC040652D9
:2038D00009021E52020256010048C4448AA602000FA6DC81A844EDD76F4906421E48065200
:2038E0001E4A56BF044B56BF024BC4448AA602000FA6DC81A844EC3A1E4E0E4B0F4E691F92
:2038F000064A074E8AA988C40648074E8AA992A654C4EC0F8A4606481EC48A480EC48A46FF
:203900001ED48A4A0EC48A461EE428A901F46F1F0201074E1E4E0E4B0F4E66E3BE0006481A
:203910009B0090FF0FA6ED0376483AAB9253EC0402025601004A020256010048C4448AA6D0
:2039200002000FA6DC81A844EDC89A00FE8E00063ABDB2BDAABDA2BDFE022901BFA90F12C7
:20393000FF58615B5CA8917F08A800801E4293A4FFD65CA8BFA90F1661675DA8917F08A896
:20394000008059A858A993A5FFD65DA893A471A518A8010097A618A400FF18A500FFDC7FB6
:2039500092A49EA596A7644D08A9FF01623E93A192A0FF3659A858A90642FF35F60E1FA1C2
:203960005BA901A3F60A1FA1562D04A22DA336A0FF40F60B1FA1FF339B00FF30FF540CA213
:2039700095A3FF4008A70001F61FFF770920FF4008A70001F61FFF77FF5A92A7652208A918
:20398000FF016313A9A9FF46917F5BA85AA925A695A7FF960CA295A3BDA90F12FE8282BE3B
:2039900086BE8BBE8EBE00069B00FF5708A8FF7FFF5A93A660F228A8800071AA92AB6FED31
:2039A000FF2000006FEAFF5A93A418A80100FF965CA8A9A908A8FF7F1CA88000CBA46FDD26
:2039B000FE10A04A1E48A8462B4B761F02A98A22D02006941E5076483E2506541E4292558F
:2039C00096438A46834A0648764838A05200EC068A4A02001EF4284B01F4761F02A98A220D
:2039D00028A9FFFF28A80505D0201E948A4606C41E4E83228A22D028929590072DA99A010E
:2039E000FF66DC0293C439A997C48A221AD4000176483E2506541E42925596438A46834A1D
:2039F0000648764838A05200EC078A4A02011EF4284B01F46F2C761F02A98A221AD40002C6
:203A00008A2218D4FFFE76483E2506541E42925596438A46834A0648764838A05200EC07B0
:203A10008A4A02021EF4284B01F46F11761F02A98A2218D400FF8A2218D4FFFD76483E2538
:203A2000761F02A98A22D02006501E94761F02A98A220650D0201E94924BFE9000068F00BE
:203A30000C00761F02A9A8180200761F003019011E022B062B071A0400101A040020020098
:203A4000761F02A91E1A8F000C08A8088F000C10A810761F003019011E0A761F003002006A
:203A500019011E12761F00302B0E2B0F761F00302B162B17761F00301A0C0010761F0030CC
:203A60001A140010761F00301A0C0020761F00301A140020761F02A902001E0A1E1200064A
:203A7000FE08E2030146E2030044A84206441EE48A4206461EF4E2AF0044E2AF0146E700E7
:203A800000087700E68800007700E20300488A428AC4064819011ED48A428AC42BF48A421C
:203A90008AC42BFC8A428AC41AE400108A428AC41AE400208A428AC418E4FBFF8A428AC417
:203AA00018E4F7FF8A428AC41AE440008A4202001ED4FE8800069A000006021A761F02A974
:203AB00007228AA98F40FFFFA0C48F000144A8A907228AA9BE00CCC4FFF8500596C48F0065
:203AC0000152A8A907228AA9C2C48F000144A8A907228AA9CCC4FFF8500296C48F000144D8
:203AD000A8A907228AA9CCC4FFF8500596C48F000160A8A907228AA9C2C48F000144A8A9AB
:203AE00007228AA9CCC4FFF8500296C48F000144A8A907228AA9CCC4FFF8500596C48F00F1
:203AF0000162A8A907228AA9C2C48F000144A8A907228AA9CCC4FFF8500296C49A000006CC
:203B0000021A761F02A907228AA98F40FFFFA0C48F000144A8A907228AA9BE00CCC4FFF8F6
:203B1000500596C48F000152A8A907228AA9C2C48F000144A8A907228AA9CCC4FFF8500277
:203B200096C49A00000628AD0400FF69561F5616561AE61002002940761F00002902761B47
:203B300076483E8352006142762228A901CC28A800080901611B76C801CC29046F0F9B001C
:203B400024A9DF016C04290424A8DF011EA6F7A1248606A781A109011EA724A96303FF5C3D
:203B50003B0459A9DF010009FFEC28A9FFFF28A8FFFF090161058F3FFFFF76483D12761ACA
:203B600076483E8528A9FFFF28A8FFFF0901610E76FFFFFF6F06DF01C3BD1EA73E67C5BE79
:203B700024A9DF0124A8FF5860F776483DF476483C78FE12A04A1E48A8462B4B02001901CD
:203B80001E50761F02A98A22D02006941E528A2228A9FFFF28A80505D0201E948A4606C440
:203B90001E4E8A228322D02892959007DC022DA99A01FF6693C439A997C48A221AD40001BF
:203BA00076483E255CADDC90A8422B43834A06488A46764838A05200EC068A4A02011EF469
:203BB000284B01F4761F02A98A220652D0201E94924BFE920006FE041E44A842761F02A9A6
:203BC0009244962A8A42CCC40F00FFC796288A428D00015D9294900F962906421E228A42D1
:203BD0008D0002009294FFC3CCA901C0FFC296248A42CC940380FFC3FFC296268A428D0066
:203BE0000201CC940C00FFC3FFC296258A42CC940180FFC3FFC296279A00FE840006FE0A01
:203BF0009643A8428F00FFFFA846A8482B495449691F8A429249F00158A90E9407461E4602
:203C0000A34618AA000006460EA8560100ABA946064607481E48A348064818AA00000EA854
:203C1000560100ABA9480A499243544966E30648FF3FCA46CB45FE8A0006FE029641761FED
:203C200002A98F0001440622560100A4CCC4FFF8500596C48F0001060622560100A4924120
:203C3000903FCDC4FFC0CAA896C48F00015A0622560100A4CCC4FFE0501596C48F0001447A
:203C40000622560100A4CCC4FFF8500296C49A00FE820006FE061E4202001E4456BF0145CB
:203C500092455220661CA34228AC001FA9A95622FF5A0644FF30CAABCBAA1E440642FF3052
:203C60001E42064A0F446607064A56410044020107421E420A459245522069E60644EC04DC
:203C7000064C07421E420642FE86000677006F00B2BD761F02A959A99238610D28ABFFFFC7
:203C800028AAFFFF28A9FFFF28A8FFFF0FAB6103767FFFFF761F02A9C53E3E67761F02A97E
:203C9000063C61041EA792A13E67761F02A9063A61031EA73E6776483C768BBE00063B1078
:203CA000761F00331820FFFE2B222B242B262B282B2A2B2C2B2E2B302B322B342B362B38E7
:203CB0002B232B252B272B292B2B2B2D2B2F2B312B332B352B372B39FF690006761F003392
:203CC0001A2000012821FFFF2910FF690006FE068F080004A8428F000D00A8440206074259
:203CD0001E42020607441E4476222B45924552DD670D83448A42A0A9C4840902A8421E44C2
:203CE000C2C50A45924552DD68F5761A761F00331A200001FF69FE860006FE0496412B42C0
:203CF000761F02A98A22D0289294900796438A2292419007DC28CDC4FFF8CAA896C48A2220
:203D0000D028929490075441EC0428A901FA6F029A0096425200ED05924176482BCC964216
:203D1000FE840006B2BDAABDA2BDFE0882A4D1005ACB6F155CAD2901560303A107A3DC88F2
:203D200009025CA483A9020876483DBC064261068A44834676483DBC5ACBD90192A254A166
:203D300066EAFE8882BE86BE8BBE0006FE021E42FF2F02100F426605FF2F02110F42661462
:203D4000FF2F020E0F4266069A8028A801070F42660BFF2C10710F42660928A9108028A817
:203D500001070F4269039A016F029A00FE820006FE0296415202EC055206EC035208ED18A0
:203D6000761F02A98A22DC181AC400018A22D028929490075207ED0476483AAD6F03764804
:203D70003B00761F02A98A22DC1818C4FFFE9A00FE8200065CA871A997A63B0185A9FF5605
:203D80005DA985A4FF565CA992A5F60F1FA44FA66C02FF5C762096A65CA83B0185A9FF5648
:203D90005DA985A4FF565CA992A5F60F1FA44FA66C02FF5D92A87620FE069641A8442B45C5
:203DA0000644FF301E4492415208ED052845020092456F119A1076483C1D924176483D585C
:203DB000761F02A98A22D08806441E94924176483C1D9A00FE8600065200A8AB8EA4610865
:203DC00080A9DF8188A780857F80000EFFFE88A90FA6610F5300610D9DFF5CA876BFFFFE33
:203DD00092859680000EFFFE92859680000CFFF8A9A40006FE021E42761F02A90E2A1EAC76
:203DE00056650042A9420642EC090642EC0A0201564100420642EDFC6F0428A901F46F02A9
:203DF0009A00FE82FF69000628ABFFFF28AAFFFF28A9FFFF28A8FFFF0FAB6004BE00D4003D
:203E00006F0928ABFFFF28AAFFFFA9A488C409028AA992A6764830690006C141C0420644CF
:203E1000CFAACEABFF5A06427620994198420644CBAACAABFF5A06427620F341F242064498
:203E200071AA70ABFF5A06427620FE028F08200006C41E428F08210006C41E428F08220099
:203E300006C41E428F08230006C41E42020176483DDAFE820006FE0AA04A1E48A846064A70
:203E40001E4256BF0243834E8A460648764839B0FE8A0006FE041E4287482901564400424D
:203E5000FF451E4476483AAB0644FE840006FE041E44A842064207448AA9924876483BEF61
:203E6000FE840006761F02A98A22D02A4894EF039A016F029A020006761F02B7A80000065C
:203E7000761F02A9A83E00060006561F7622B9C028290068761A00483B23761F02A98A229F
:0C3E8000D02A069400069A0100060006F5
:206000007622761F17E0CC1EFF005014961E1A2400011A200003761F17E61800FFFD180021
:20601000FFFE761F17E0CC00F0FF1AA903009600761F17E61A0000021A000001761F17EC6F
:20602000CC00FFF0500A9600761AF6077700FF6900067622761F17E0CC1EFF005014961E1E
:206030001820FFFC1824FFFE761AFF690006FE0296417625FF69FE8200067625FF6900067D
:08604000190156C3FFFF000621
:00000001FF
